:100000000C9462000C948A000C948A000C948A0070
:100010000C948A000C948A000C948A000C948A0038
:100020000C948A000C948A000C948A000C948F0320
:100030000C948A000C948A000C948A000C948A0018
:100040000C94ED020C948A000C945D030C9437031D
:100050000C948A000C948A000C948A000C948A00F8
:100060000C948A000C948A000000000024002700F1
:100070002A0000000000250028002B0000000000DE
:1000800023002600290004040404040404040202DA
:100090000202020203030303030301020408102007
:1000A0004080010204081020010204081020000012
:1000B0000008000201000003040700000000000027
:1000C00000004B0411241FBECFEFD8E0DEBFCDBF30
:1000D00011E0A0E0B1E0E4EEFCE002C005900D927A
:1000E000AC39B107D9F722E0ACE9B1E001C01D920B
:1000F000AC36B207E1F710E0C2E6D0E004C02197C9
:10010000FE010E946A06C136D107C9F70E94A80401
:100110000C9470060C9400008F929F92AF92BF9245
:10012000FF920F931F93CF93DF93F09069022BE020
:100130002F1508F44CC020916B0208E512E0021B59
:10014000110927FD1395000F111F000F111F20919A
:100150006A02C8E8D0E0C21BD10927FDD395CC0FB5
:10016000DD1FCC0FDD1F4E010D2E000CAA08BB08B1
:100170009801012E000C440B550B281939094A0926
:100180005B09DC010E94250624EB30E040E050E0F2
:100190000E94FB05820E931EA41EB51E8C169D06A2
:1001A0002CF0E801801691060CF4E4012297CC0FA4
:1001B000DD1F2FB7F8948F2D90E0FC01EE0FFF1F8D
:1001C000E80FF91FEC5BFD4FD283C1832FBFDF9196
:1001D000CF911F910F91FF90BF90AF909F908F9004
:1001E0000895833081F028F4813099F08230A9F0AD
:1001F00008958730A9F08830C9F08430B1F4809137
:1002000080008F7D03C0809180008F778093800075
:10021000089584B58F7784BD089584B58F7DFBCF15
:100220008091B0008F778093B00008958091B000E6
:100230008F7DF9CFCF93DF93EAEBF0E08491E6EA8C
:10024000F0E0D491E2E9F0E0C491CC23A1F0811177
:100250000E94F100EC2FF0E0EE0FFF1FE458FF4F7B
:10026000A591B491EC91ED2381E090E009F480E058
:10027000DF91CF91089580E090E0FACF1F93CF9364
:10028000DF93282F30E0F901E255FF4F8491F90107
:10029000E656FF4FD491F901EA57FF4FC491CC23A2
:1002A000A9F0162F81110E94F100EC2FF0E0EE0F63
:1002B000FF1FEE58FF4FA591B4918FB7F894EC91C2
:1002C000111108C0D095DE23DC938FBFDF91CF9151
:1002D0001F910895DE2BF8CF3FB7F8948091A301CA
:1002E0009091A401A091A501B091A60126B5A89B6B
:1002F00005C02F3F19F00196A11DB11D3FBFBA2FB8
:10030000A92F982F8827BC01CD01620F711D811D77
:10031000911D42E0660F771F881F991F4A95D1F7FC
:1003200008958F929F92AF92BF92CF92DF92EF92F9
:10033000FF924B015C010E946C016B017C010E94E9
:100340006C016C197D098E099F09683E7340810517
:100350009105A8F321E0821A9108A108B10888EE5E
:10036000C80E83E0D81EE11CF11C81149104A10485
:10037000B10429F7FF90EF90DF90CF90BF90AF903E
:100380009F908F900895AF92BF92CF92DF92EF929D
:10039000FF920F931F93CF93DF936C017B018B012F
:1003A000040F151FEB015E01AE18BF08C017D1077F
:1003B00059F06991D601ED91FC910190F081E02D09
:1003C000C6010995892B79F7C501DF91CF911F915E
:1003D0000F91FF90EF90DF90CF90BF90AF90089576
:1003E000FC01538D448D252F30E0842F90E0821B3B
:1003F000930B541710F0CF96089501970895FC01C0
:10040000918D828D981761F0A28DAE0FBF2FB11D17
:100410005D968C91928D9F5F9F73928F90E008956F
:100420008FEF9FEF0895FC01918D828D981731F029
:10043000828DE80FF11D858D90E008958FEF9FEF7D
:100440000895FC01918D228D892F90E0805C9F4F53
:10045000821B91098F739927089587EA91E00E9482
:10046000210221E0892B09F420E0822F089580E009
:1004700090E0892B29F00E942D0281110C9400003C
:100480000895FC01A48DA80FB92FB11DA35ABF4F29
:100490002C91848D90E001968F739927848FA68983
:1004A000B7892C93A089B1898C91837080648C93D7
:1004B000938D848D981306C00288F389E02D808186
:1004C0008F7D80830895EF92FF920F931F93CF93B8
:1004D000DF93EC0181E0888F9B8D8C8D98131AC07F
:1004E000E889F989808185FF15C09FB7F894EE8966
:1004F000FF896083E889F9898081837080648083C3
:100500009FBF81E090E0DF91CF911F910F91FF900D
:10051000EF900895F62E0B8D10E00F5F1F4F0F73B5
:100520001127E02E8C8D8E110CC00FB607FCFACF70
:10053000E889F989808185FFF5CFCE010E944102CB
:10054000F1CFEB8DEC0FFD2FF11DE35AFF4FF08241
:100550009FB7F8940B8FEA89FB8980818062CFCFA7
:10056000CF93DF93EC01888D8823B9F0AA89BB89EA
:10057000E889F9898C9185FD03C0808186FD0DC0D5
:100580000FB607FCF7CF8C9185FFF2CF808185FFF6
:10059000EDCFCE010E944102E9CFDF91CF910895C6
:1005A000CF93DF93FC0101900020E9F73197AF0171
:1005B000481B590BBC0187EA91E00E94C301EC0182
:1005C00042E050E062E171E087EA91E00E94C301FD
:1005D0008C0F9D1FDF91CF9108951F920F920FB640
:1005E0000F9211242F933F938F939F93AF93BF93B9
:1005F00080919F019091A001A091A101B091A201D1
:1006000030919E0123E0230F2D3758F50196A11D4F
:10061000B11D20939E0180939F019093A001A09310
:10062000A101B093A2018091A3019091A401A09196
:10063000A501B091A6010196A11DB11D8093A30152
:100640009093A401A093A501B093A601BF91AF918F
:100650009F918F913F912F910F900FBE0F901F9000
:10066000189526E8230F0296A11DB11DD2CF1F9227
:100670000F920FB60F9211242F933F934F935F93D6
:100680006F937F938F939F93AF93BF93EF93FF935A
:1006900087EA91E00E944102FF91EF91BF91AF91F3
:1006A0009F918F917F916F915F914F913F912F918A
:1006B0000F900FBE0F901F9018951F920F920FB6BC
:1006C0000F9211242F938F939F93EF93FF93E091B9
:1006D000B701F091B8018081E091BD01F091BE01B8
:1006E00082FD1BC090818091C0018F5F8F7320912C
:1006F000C101821741F0E091C001F0E0E955FE4FE1
:10070000958F8093C001FF91EF919F918F912F91D1
:100710000F900FBE0F901F9018958081F4CF1F92FD
:100720000F920FB60F9211242F933F934F935F9325
:100730006F937F938F939F93AF93BF93CF93DF93E9
:10074000EF93FF9380919C01C0916802D0E087FFF6
:1007500024C0109285001092840080919C018F5FCC
:1007600080939C0180919C01082E000C990B8C17A2
:100770009D0724F480919C018C30C4F18091840009
:1007800090918500049680349C4908F47AC0809149
:10079000840090918500049676C080919C01082E7B
:1007A000000C990B8C179D07C4F6E0919C018E2FCD
:1007B000EE0F990BFC01EE0FFF1FE80FF91FEC5B2A
:1007C000FD4F808186FFC9CFE0919C018E2FEE0FF7
:1007D000990BFC01EE0FFF1FE80FF91FEC5BFD4FBB
:1007E000808160E08F730E943E01B7CF209184002A
:1007F00030918500E0919C018E2FEE0F990BFC014A
:10080000EE0FFF1FE80FF91FEC5BFD4F8181928116
:10081000820F931F9093890080938800E0919C0140
:100820008E2FEE0F990BFC01EE0FFF1FE80FF91F43
:10083000EC5BFD4F808186FF11C0E0919C018E2F03
:10084000EE0F990BFC01EE0FFF1FE80FF91FEC5B99
:10085000FD4F808161E08F730E943E01FF91EF9117
:10086000DF91CF91BF91AF919F918F917F916F91C8
:100870005F914F913F912F910F900FBE0F901F905E
:10088000189580E49CE990938900809388008FEF0D
:1008900080939C01E3CF1092AA011092A90188EEE7
:1008A00093E0A0E0B0E08093AB019093AC01A09303
:1008B000AD01B093AE0184E091E09093A8018093E4
:1008C000A70185EC90E09093B4018093B30184EC90
:1008D00090E09093B6018093B50180EC90E0909306
:1008E000B8018093B70181EC90E09093BA018093B6
:1008F000B90182EC90E09093BC018093BB0186EC3F
:1009000090E09093BE018093BD011092C0011092BF
:10091000C1011092C2011092C301809168028C3013
:1009200098F491E0980F909368028093690290E0A8
:10093000FC01EE0FFF1FE80FF91FEC5BFD4F88EB8A
:100940009BE09283818308958FEF809369020895DD
:10095000789484B5826084BD84B5816084BD85B59A
:10096000826085BD85B5816085BD80916E008160A6
:1009700080936E001092810080918100826080934C
:10098000810080918100816080938100809180004E
:100990008160809380008091B10084608093B10079
:1009A0008091B00081608093B00080917A00846073
:1009B00080937A0080917A00826080937A0080919F
:1009C0007A00816080937A0080917A0080688093B9
:1009D0007A001092C100E091B701F091B80182E075
:1009E0008083E091B301F091B4011082E091B501F0
:1009F000F091B6018FEC80831092BF01E091BB01B2
:100A0000F091BC0186E08083E091B901F091BA01D8
:100A1000808180618083E091B901F091BA01808189
:100A200088608083E091B901F091BA01808180688B
:100A30008083E091B901F091BA0180818F7D80833C
:100A4000809169028C3008F068C0E5EAF0E02491FA
:100A5000E1E9F0E08491882399F090E0880F991FF4
:100A6000FC01E859FF4FA591B491FC01EE58FF4FEE
:100A7000859194918FB7F894EC91E22BEC938FBF12
:100A800080916902282F30E0F901EE0FFF1FE20F7D
:100A9000F31FEC5BFD4F9081907C9B6090831092E4
:100AA0006A0210926B022CE0622F0E945E06829F07
:100AB000B001112430E020E0AB01420F531FFA01D6
:100AC000EE0FFF1FE40FF51FEC5BFD4F908196FDCD
:100AD00016C02F5F3F4F2C30310571F781110FC0C9
:100AE0001092800082E08093810010928500109225
:100AF0008400B19A80916F00826080936F00E091D2
:100B000069028E2F90E0FC01EE0FFF1FE80FF91F26
:100B1000EC5BFD4F80818064808390E080E00E94E8
:100B20008C00E6EAF0E02491E2E9F0E08491882389
:100B3000C1F090E0880F991FFC01E859FF4FC59163
:100B4000D491FC01EE58FF4FA591B4919FB7F89452
:100B50008881E22FE0958E2388838C91E823EC93A3
:100B60009FBF85E191E00E94D0028EE291E00E9459
:100B7000D00283E591E00E94D002C0E0D0E011E015
:100B80000E941A01019771F562E370E080E090E045
:100B90000E94910180919D018823A9F090E080E05E
:100BA0000E948C0010929D0189E691E00E94D00283
:100BB0000E941A01019781F46AE070E080E090E001
:100BC0000E949101F5CF8AE590E00E948C0010937D
:100BD0009D0182E891E0EACF62E370E080E090E07E
:100BE0000E949101209761F20E942D02882341F218
:100BF0000E940000C5CF052E97FB1EF400940E94B2
:100C0000120657FD07D00E942D0607FC03D04EF4B4
:100C10000C94120650954095309521953F4F4F4FBB
:100C20005F4F089590958095709561957F4F8F4F98
:100C30009F4F08950E944F06A59F900DB49F900D61
:100C4000A49F800D911D11240895B7FF0C941A06DE
:100C50000E941A06821B930B0895A1E21A2EAA1B6A
:100C6000BB1BFD010DC0AA1FBB1FEE1FFF1FA2175C
:100C7000B307E407F50720F0A21BB30BE40BF50B59
:100C8000661F771F881F991F1A9469F760957095E2
:100C9000809590959B01AC01BD01CF010895A29F65
:100CA000B001B39FC001A39F700D811D1124911D40
:100CB000B29F700D811D1124911D0895991B79E03B
:100CC00004C0991F961708F0961B881F7A95C9F7DC
:100CD00080950895EE0FFF1F0590F491E02D099483
:040CE000F894FFCFB6
:100CE400000000006302C301F001B0022102FF0111
:100CF40013020D0A003D3D3D20534552564F2043FB
:100D04004F4E20424F54C3934E203D3D3D00507200
:100D14006573696F6E6120656C20626F74C3B36E16
:100D240020706172612061627269722F63657272F0
:100D34006172005075657274613A204345525241A4
:100D44004441202830C2B029003E3E3E2050554543
:100D54005254412043455252414441202830C2B0AC
:100D640029003E3E3E2050554552544120414249BF
:0C0D74004552544120283930C2B02900FB
:00000001FF
